:100000000C94A7000C94C4000C94C4000C94C4007D
:100010000C94C4000C94C4000C94C4000C94C40050
:100020000C94C4000C94C4000C94C4000C94C40040
:100030000C94C4000C94C4000C94C4000C94C40030
:100040000C94C4000C94C4000C94C4000C94C40020
:100050000C94C40000407A10F35A00A0724E1809A4
:100060000010A5D4E80000E87648170000E40B541F
:10007000020000CA9A3B000000E1F50500008096EE
:100080009800000040420F000000A0860100000020
:10009000102700000000E8030000000064000000DA
:1000A00000000A00000000000100000000002C76A3
:1000B000D888DC674F0823DFC1DFAE59E1B1B796BE
:1000C000E5E3E453C63AE651997696E8E6C284261B
:1000D000EB898C9B62ED407C6FFCEFBC9C9F40F2F7
:1000E000BAA56FA5F490055A2AF75C936B6CF96773
:1000F0006DC11BFCE0E40D47FEF520E6B500D0ED38
:10010000902E0300943577050080841E080000209F
:100110004E0A000000C80C333333330F986E12833D
:100120001141EF8D2114893BE65516CFFEE6DB1811
:10013000D1844B381BF77C1D901DA4BBE4242032D6
:1001400084725E228100C9F124ECA1E53D271124CF
:100150001FBECFE5D8E0DEBFCDBF11E0A0E6B0E026
:10016000E2E4FBE302C005900D92A837B107D9F78E
:1001700011E0A8E7B1E001C01D92A438B107E1F792
:100180000E94DC1A0C949F1D0C940000EF92FF92C9
:100190000F931F937B018C0120E030E040E05FE48F
:1001A0000E94720488238CF0C801B70120E030E07F
:1001B00040E05FE40E943E020E94D2049B01AC0139
:1001C000205030404040504806C0C801B7010E944E
:1001D000D2049B01AC01B901CA011F910F91FF909C
:1001E000EF900895A0E0B0E0E8EFF0E00C94FB1A87
:1001F000DC012B01FA019C91923008F439C1EB012A
:100200008881823008F433C1943069F4843009F075
:100210002FC111969C9111978981981709F428C1D3
:10022000AFE6B0E025C1843009F421C18230A9F4E1
:10023000923009F01DC19A01AD0188E0EA010990F0
:10024000AE01E90109929E018150C1F7E201898165
:1002500011969C918923818308C1923009F407C1CA
:1002600012962D903C901397EB018A819B811496F6
:10027000AD90BD90CD90DC901797EC80FD800E8105
:100280001F819101281B390BB90137FF04C0662774
:100290007727621B730B603271050CF061C0121678
:1002A00013066CF537014801062E04C09694879416
:1002B000779467940A94D2F721E030E040E050E070
:1002C00004C0220F331F441F551F6A95D2F72150D7
:1002D0003040404050402E213F21402351232115E2
:1002E00031054105510521F021E030E040E050E0CA
:1002F00079018A01E628F728082919293CC0232B0F
:10030000D1F1260E371E35014601062E04C0969403
:100310008794779467940A94D2F721E030E040E024
:1003200050E004C0220F331F441F551F6A95D2F7B7
:1003300021503040404050402A213B214C215D213A
:10034000211531054105510521F021E030E040E063
:1003500050E059016A01A628B728C828D9280BC03F
:10036000821593052CF01C01AA24BB24650103C04F
:10037000EE24FF24870111969C91D20111968C9155
:10038000981709F445C0992339F0A80197012A1953
:100390003B094C095D0906C0A60195012E193F09CC
:1003A000400B510B57FD08C01182338222822483F7
:1003B0003583468357831DC081E081833382228247
:1003C00088279927DC01821B930BA40BB50B848330
:1003D0009583A683B7830DC0220F331F441F551F7B
:1003E0002483358346835783828193810197938346
:1003F00082832481358146815781DA01C9010197C1
:10040000A109B1098F5F9F4FAF4FBF4328F30BC0C6
:10041000918333822282EA0CFB1C0C1D1D1DE48299
:10042000F5820683178383E08083248135814681AA
:10043000578157FF1AC0C901AA2797FDA095BA2F67
:1004400081709070A070B07056954795379527953C
:10045000822B932BA42BB52B84839583A683B78300
:1004600082819381019693838283DF0101C0D2014F
:10047000CD01CDB7DEB7E2E10C94171BA0E2B0E0EE
:10048000E4E4F2E00C94071B69837A838B839C83FA
:100490002D833E834F835887E9E0EE2EF12CEC0E3E
:1004A000FD1ECE010196B7010E94C3068E010F5EAC
:1004B0001F4FCE010596B8010E94C3068A8991E0BC
:1004C00089278A8BC701B801AE01475E5F4F0E9442
:1004D000F2000E94EE05A096E6E00C94231BA0E239
:1004E000B0E0E5E7F2E00C94071B69837A838B8325
:1004F0009C832D833E834F835887F9E0EF2EF12CA8
:10050000EC0EFD1ECE010196B7010E94C3068E01BE
:100510000F5E1F4FCE010596B8010E94C306C701AA
:10052000B801AE01475E5F4F0E94F2000E94EE05E7
:10053000A096E6E00C94231BA0E2B0E0E2EAF2E031
:100540000C94FB1A69837A838B839C832D833E836F
:100550004F835887CE010196BE01675F7F4F0E948F
:10056000C306CE010596BE016F5E7F4F0E94C30693
:100570009985923088F089898230C8F0943019F4D6
:10058000823051F404C0843029F4923081F48FE633
:1005900090E0C6C0923049F420E09A858A89981389
:1005A00021E02A87CE010996BBC0823049F420E0C1
:1005B0009A858A89981321E02A8BCE014196B0C092
:1005C0002D843E844F8458886D887E888F88988CCF
:1005D000EE24FF248701AA24BB24650140E050E0FB
:1005E00060E070E0E0E0F0E0C10181709070892B84
:1005F000E9F0E60CF71C081D191D9A01AB012A0D44
:100600003B1D4C1D5D1D80E090E0A0E0B0E0E614D5
:10061000F7040805190520F481E090E0A0E0B0E0BF
:10062000BA01A901480F591F6A1F7B1FAA0CBB1CE6
:10063000CC1CDD1C97FE08C081E090E0A0E0B0E09B
:10064000A82AB92ACA2ADB2A3196E032F10549F0F4
:10065000660C771C881C991C5694479437942794F1
:10066000C3CFFA85EA892B893C898B859C85280F25
:10067000391F2E5F3F4F17C0CA0181709070892BC0
:1006800061F016950795F794E79480E090E0A0E07C
:10069000B0E8E82AF92A0A2B1B2B7695679557951F
:1006A00047952F5F3F4F77FDE7CF0CC0440F551F95
:1006B000661F771F17FD4160EE0CFF1C001F111F06
:1006C00021503040403090E0590790E0690790E4B5
:1006D000790760F32B8F3C8FDB01CA018F77907015
:1006E000A070B07080349105A105B10561F447FD9B
:1006F0000AC0E114F1040105110529F0405C5F4FC7
:100700006F4F7F4F40781A8EFE1711F081E08A8F6D
:100710004D8F5E8F6F8F78A383E0898FCE014996CE
:100720000E94EE05A096E2E10C94171BA8E1B0E050
:10073000ECE9F3E00C94031B69837A838B839C833D
:100740002D833E834F835887B9E0EB2EF12CEC0EBE
:10075000FD1ECE010196B7010E94C3068E010F5EF9
:100760001F4FCE010596B8010E94C306298522308D
:1007700008F47EC03989323010F4B8017CC08A8513
:100780009A8989278A87243011F0223031F423177F
:1007900009F06EC06FE670E06EC0343039F41D862B
:1007A0001E861F86188A1C861B8604C0323021F4E0
:1007B00084E08987B7015FC02B853C858B899C8944
:1007C000281B390B3C872B87ED84FE840F85188905
:1007D000AD88BE88CF88D88CEA14FB040C051D05B3
:1007E00040F4EE0CFF1C001F111F215030403C87CD
:1007F0002B8720E030E040E050E080E090E0A0E097
:10080000B0E460E070E0EA14FB040C051D0540F064
:10081000282B392B4A2B5B2BEA18FB080C091D09E6
:10082000B695A79597958795EE0CFF1C001F111F95
:100830006F5F7F4F6F31710531F7DA01C9018F7733
:100840009070A070B07080349105A105B10561F47D
:1008500027FD0AC0E114F1040105110529F0205C0F
:100860003F4F4F4F5F4F20782D873E874F87588BE4
:10087000BE01675F7F4FCB010E94EE056896EAE0FC
:100880000C941F1BA8E1B0E0E8E4F4E00C94071B13
:1008900069837A838B839C832D833E834F83588720
:1008A00089E0E82EF12CEC0EFD1ECE010196B70179
:1008B0000E94C3068E010F5E1F4FCE010596B80140
:1008C0000E94C3068985823040F08989823028F0F1
:1008D000C701B8010E943B0701C08FEF6896E6E0B0
:1008E0000C94231BA8E1B0E0E8E7F4E00C94071BAC
:1008F00069837A838B839C832D833E834F835887C0
:1009000089E0E82EF12CEC0EFD1ECE010196B70118
:100910000E94C3068E010F5E1F4FCE010596B801DF
:100920000E94C3068985823040F08989823028F090
:10093000C701B8010E943B0701C08FEF6896E6E04F
:100940000C94231BA8E1B0E0E8EAF4E00C94071B48
:1009500069837A838B839C832D833E834F8358875F
:1009600089E0E82EF12CEC0EFD1ECE010196B701B8
:100970000E94C3068E010F5E1F4FCE010596B8017F
:100980000E94C3068985823040F08989823028F030
:10099000C701B8010E943B0701C081E06896E6E00C
:1009A0000C94231BACE0B0E0E8EDF4E00C940B1BDE
:1009B00069837A838B839C83CE010196BE016B5F32
:1009C0007F4F0E94C3068D81823061F1823050F1E9
:1009D000843021F48E81882351F12EC02F813885F7
:1009E00037FD20C06E812F3131051CF06623F9F0F0
:1009F00023C08EE190E0821B930B29853A854B85BD
:100A00005C8504C056954795379527958A95D2F70A
:100A10006623B1F050954095309521953F4F4F4F4B
:100A20005F4F0EC020E030E040E050E009C02FEF03
:100A30003FEF4FEF5FE704C020E030E040E050E8D8
:100A4000B901CA012C96E2E00C94271BA8E0B0E0A3
:100A5000ECE2F5E00C94031B7B018C016115710540
:100A60008105910519F482E0898360C083E0898360
:100A70008EE1C82ED12CDC82CB82ED82FE820F83E8
:100A80001887C801B7010E949F05FC013197F7FF45
:100A90003BC0222733272E1B3F0B57016801022E34
:100AA00004C0D694C794B794A7940A94D2F740E0B0
:100AB00050E060E070E081E090E0A0E0B0E004C0D1
:100AC000880F991FAA1FBB1F2A95D2F70197A1096A
:100AD000B1098E219F21A023B1230097A105B10563
:100AE00021F041E050E060E070E04A295B296C2988
:100AF0007D294D835E836F8378878EE190E08E1B26
:100B00009F0B9C838B8312C0309781F00E2E04C004
:100B1000EE0CFF1C001F111F0A94D2F7ED82FE821B
:100B20000F831887CE1ADF0ADC82CB821A82CE01AD
:100B300001960E94EE052896EAE00C941F1BEF92A6
:100B4000FF920F931F937B018C0180E0E81680E0F9
:100B5000F80681E0080780E0180788F48FEFE816B0
:100B6000F1040105110531F028F088E090E0A0E0E3
:100B7000B0E017C080E090E0A0E0B0E012C080E0FC
:100B8000E81680E0F80680E0080781E0180728F002
:100B900088E190E0A0E0B0E004C080E190E0A0E057
:100BA000B0E020E230E040E050E0281B390B4A0B77
:100BB0005B0B04C016950795F794E7948A95D2F7D6
:100BC000F701E958FF4F8081281B3109410951097C
:100BD000C9011F910F91FF90EF900895DF92EF925E
:100BE000FF920F931F93FC01E480F580068117812B
:100BF000D1808081823048F480E090E0A0E1B0E0D4
:100C0000E82AF92A0A2B1B2BA5C0843009F49FC0BF
:100C1000823021F4EE24FF24870105C0E114F104A1
:100C20000105110519F4E0E0F0E096C062817381DE
:100C30009FEF623879070CF05BC022E83FEF261B7C
:100C4000370B2A3131052CF020E030E040E050E055
:100C50002AC0B801A701022E04C076956795579562
:100C600047950A94D2F781E090E0A0E0B0E004C09C
:100C7000880F991FAA1FBB1F2A95D2F70197A109B8
:100C8000B1098E219F21A023B1230097A105B105B1
:100C900021F081E090E0A0E0B0E09A01AB01282BC8
:100CA000392B4A2B5B2BDA01C9018F779070A0702A
:100CB000B07080349105A105B10539F427FF09C052
:100CC000205C3F4F4F4F5F4F04C0215C3F4F4F4F61
:100CD0005F4FE0E0F0E02030A0E03A07A0E04A07F4
:100CE000A0E45A0710F0E1E0F0E079018A0127C0A2
:100CF0006038710564F5FB01E158FF4FD801C70169
:100D00008F779070A070B07080349105A105B10507
:100D100039F4E7FE0DC080E490E0A0E0B0E004C04C
:100D20008FE390E0A0E0B0E0E80EF91E0A1F1B1F61
:100D300017FF05C016950795F794E794319687E05D
:100D400016950795F794E7948A95D1F705C0EE2498
:100D5000FF248701EFEFF0E06E2F67956627679518
:100D6000902F9F77D794DD24D7948E2F8695492F87
:100D7000462B582F5D29B701CA011F910F91FF9093
:100D8000EF90DF900895FC01DB01408151812281C9
:100D9000622F6F7770E0221F2227221F9381892FF5
:100DA000880F822B282F30E0991F9927991F1196C1
:100DB0009C93119721153105A9F541155105610540
:100DC000710511F482E037C082E89FEF13969C937F
:100DD0008E9312979A01AB0167E0220F331F441FD5
:100DE000551F6A95D1F783E08C930DC0220F331FF6
:100DF000441F551F12968D919C911397019713963E
:100E00009C938E931297203080E0380780E048074B
:100E100080E4580758F314962D933D934D935C93BB
:100E2000179708952F3F310579F441155105610554
:100E3000710519F484E08C93089564FF03C081E088
:100E40008C9312C01C9210C02F57304013963C93C5
:100E50002E93129783E08C9387E0440F551F661FF3
:100E6000771F8A95D1F7706414964D935D936D93B7
:100E70007C93179708951F93DC01FB019C9192309E
:100E800008F447C08081823008F443C0943051F4A4
:100E900011961C91843099F58181682F70E0611B57
:100EA00071093FC0843021F0923031F48230B9F1C1
:100EB0008181882389F12DC011961C911197823070
:100EC000F1F081811817D9F412962D913C91139766
:100ED000828193818217930794F028173907BCF019
:100EE00014968D919D910D90BC91A02D24813581FA
:100EF00046815781281739074A075B0718F41123E1
:100F000041F00AC082179307A407B50740F41123E4
:100F100019F061E070E005C06FEF7FEF02C060E0A4
:100F200070E0CB011F910895DF93CF93CDB7DEB76B
:100F3000A7E3B0E0E7E3F0E0808184608C93A7E36F
:100F4000B0E0E7E3F0E0808188608C93A7E3B0E055
:100F5000E7E3F0E0808181608C93A7E3B0E0E7E312
:100F6000F0E0808182608C93CF91DF910895DF93D0
:100F7000CF93CDB7DEB72E970FB6F894DEBF0FBE76
:100F8000CDBFA8E3B0E0E8E3F0E080818B7F8C93F5
:100F9000A8E3B0E0E8E3F0E0808188608C93A8E308
:100FA000B0E0E8E3F0E0808181608C93A8E3B0E0FA
:100FB000E8E3F0E080818D7F8C9380E090E0AAE709
:100FC000B4E48B879C87AD87BE876B857C858D85D8
:100FD0009E8520E030E04AE755E40E949C02DC0157
:100FE000CB018F839887A987BA876F817885898598
:100FF0009A8520E030E040E85FE30E94A204882365
:101000002CF481E090E09E838D833FC06F817885D2
:1010100089859A8520E03FEF4FE757E40E9442041C
:1010200018164CF56B857C858D859E8520E030E01B
:1010300040E251E40E949C02DC01CB01BC01CD01E5
:101040000E94C600DC01CB019E838D830FC080E926
:1010500091E09C838B838B819C810197F1F79C832A
:101060008B838D819E8101979E838D838D819E814F
:10107000009769F714C06F81788589859A850E94E9
:10108000C600DC01CB019E838D838D819E819A8376
:10109000898389819A810197F1F79A8389832E96B2
:1010A0000FB6F894DEBF0FBECDBFCF91DF9108958C
:1010B000DF93CF93CDB7DEB72E970FB6F894DEBF90
:1010C0000FBECDBFA8E3B0E0E8E3F0E080818B7F06
:1010D0008C93A8E3B0E0E8E3F0E0808188608C9333
:1010E000A8E3B0E0E8E3F0E080818E7F8C93A8E392
:1010F000B0E0E8E3F0E0808182608C9380E090E0F3
:10110000AAE7B4E48B879C87AD87BE876B857C8517
:101110008D859E8520E030E04AE755E40E949C02E0
:10112000DC01CB018F839887A987BA876F81788587
:1011300089859A8520E030E040E85FE30E94A204C0
:1011400088232CF481E090E09E838D833FC06F81E3
:10115000788589859A8520E03FEF4FE757E40E9424
:10116000420418164CF56B857C858D859E8520E0A4
:1011700030E040E251E40E949C02DC01CB01BC0162
:10118000CD010E94C600DC01CB019E838D830FC080
:1011900080E991E09C838B838B819C810197F1F79F
:1011A0009C838B838D819E8101979E838D838D810E
:1011B0009E81009769F714C06F81788589859A852B
:1011C0000E94C600DC01CB019E838D838D819E81B0
:1011D0009A83898389819A810197F1F79A83898318
:1011E0002E960FB6F894DEBF0FBECDBFCF91DF9124
:1011F0000895DF93CF93CDB7DEB72E970FB6F8944F
:10120000DEBF0FBECDBFA8E3B0E0E8E3F0E0808131
:1012100084608C93A8E3B0E0E8E3F0E08081877F0E
:101220008C93A8E3B0E0E8E3F0E080818E7F8C93BC
:10123000A8E3B0E0E8E3F0E080818D7F8C9380E06C
:1012400090E8ABE3B5E48B879C87AD87BE876B8561
:101250007C858D859E8520E030E04AE755E40E943C
:101260009C02DC01CB018F839887A987BA876F81A5
:10127000788589859A8520E030E040E85FE30E9428
:10128000A20488232CF481E090E09E838D833FC0EC
:101290006F81788589859A8520E03FEF4FE757E495
:1012A0000E94420418164CF56B857C858D859E85C1
:1012B00020E030E040E251E40E949C02DC01CB01DE
:1012C000BC01CD010E94C600DC01CB019E838D8351
:1012D0000FC080E991E09C838B838B819C81019777
:1012E000F1F79C838B838D819E8101979E838D83F3
:1012F0008D819E81009769F714C06F8178858985FB
:101300009A850E94C600DC01CB019E838D838D816E
:101310009E819A83898389819A810197F1F79A83C3
:1013200089832E960FB6F894DEBF0FBECDBFCF9146
:10133000DF910895DF93CF93CDB7DEB72E970FB629
:10134000F894DEBF0FBECDBFA8E3B0E0E8E3F0E065
:1013500080818B7F8C93A8E3B0E0E8E3F0E08081AC
:1013600088608C93A8E3B0E0E8E3F0E080818E7FB2
:101370008C93A8E3B0E0E8E3F0E080818D7F8C936C
:1013800080E090E0AAE7B4E48B879C87AD87BE87B6
:101390006B857C858D859E8520E030E04AE755E4AD
:1013A0000E949C02DC01CB018F839887A987BA87B2
:1013B0006F81788589859A8520E030E040E85FE399
:1013C0000E94A20488232CF481E090E09E838D8308
:1013D0003FC06F81788589859A8520E03FEF4FE790
:1013E00057E40E94420418164CF56B857C858D8568
:1013F0009E8520E030E040E251E40E949C02DC0146
:10140000CB01BC01CD010E94C600DC01CB019E8353
:101410008D830FC080E991E09C838B838B819C81BD
:101420000197F1F79C838B838D819E8101979E8329
:101430008D838D819E81009769F714C06F817885B7
:1014400089859A850E94C600DC01CB019E838D832D
:101450008D819E819A83898389819A810197F1F791
:101460009A8389832E960FB6F894DEBF0FBECDBF48
:10147000CF91DF910895DF93CF93CDB7DEB72E974D
:101480000FB6F894DEBF0FBECDBFA8E3B0E0E8E32F
:10149000F0E080818B7F8C93A8E3B0E0E8E3F0E09C
:1014A0008081877F8C93A8E3B0E0E8E3F0E080815F
:1014B0008E7F8C93A8E3B0E0E8E3F0E080818D7F3D
:1014C0008C9380E090E0AAE7B4E48B879C87AD879B
:1014D000BE876B857C858D859E8520E030E04AE760
:1014E00055E40E949C02DC01CB018F839887A98779
:1014F000BA876F81788589859A8520E030E040E859
:101500005FE30E94A20488232CF481E090E09E8394
:101510008D833FC06F81788589859A8520E03FEF74
:101520004FE757E40E94420418164CF56B857C8502
:101530008D859E8520E030E040E251E40E949C02CF
:10154000DC01CB01BC01CD010E94C600DC01CB0156
:101550009E838D830FC080E991E09C838B838B8178
:101560009C810197F1F79C838B838D819E810197EC
:101570009E838D838D819E81009769F714C06F8152
:10158000788589859A850E94C600DC01CB019E83FF
:101590008D838D819E819A83898389819A81019728
:1015A000F1F79A8389832E960FB6F894DEBF0FBEAB
:1015B000CDBFCF91DF910895DF93CF93CDB7DEB745
:1015C000A7970FB6F894DEBF0FBECDBF8FA3EBE396
:1015D000F0E08FA18083A8E3B0E0E8E3F0E0808151
:1015E0008D7F8C93A8E3B0E0E8E3F0E080818B7F0F
:1015F0008C93A8E3B0E0E8E3F0E0808188608C930E
:1016000080E090E0A0E8BFE38BA39CA3ADA3BEA3C2
:101610006BA17CA18DA19EA12BEA3AEA4AEA50E493
:101620000E949C02DC01CB018F8F98A3A9A3BAA3CF
:101630006F8D78A189A19AA120E030E040E85FE3B6
:101640000E94A20488231CF481E08E8F91C06F8DCC
:1016500078A189A19AA120E030E04FE753E40E94ED
:10166000420418160CF07BC06BA17CA18DA19EA139
:1016700020E030E04AE754E40E949603DC01CB010D
:101680008A8F9B8FAC8FBD8F6A8D7B8D8C8D9D8D4E
:1016900020E030E04AE755E40E949C02DC01CB01E7
:1016A0008E8B9F8BA88FB98F6E897F89888D998D3E
:1016B00020E030E040E85FE30E94A20488232CF49D
:1016C00081E090E09D8B8C8B3FC06E897F89888DF7
:1016D000998D20E03FEF4FE757E40E94420418162F
:1016E0004CF56A8D7B8D8C8D9D8D20E030E040E245
:1016F00051E40E949C02DC01CB01BC01CD010E949F
:10170000C600DC01CB019D8B8C8B0FC080E991E082
:101710009B8B8A8B8A899B890197F1F79B8B8A8B9C
:101720008C899D8901979D8B8C8B8C899D890097D5
:1017300069F724C06E897F89888D998D0E94C600C3
:10174000DC01CB019D8B8C8B8C899D89998B888B3F
:10175000888999890197F1F7998B888B0FC06F8DD4
:1017600078A189A19AA10E94C600DC01CB018E8FCD
:101770008E8D8F878F858A95F1F78F87A8E3B0E0EC
:10178000E8E3F0E08081877F8C9380E090E0A0E444
:10179000B0E48B879C87AD87BE876B857C858D8504
:1017A0009E8520E030E04AE755E40E949C02DC017F
:1017B000CB018F839887A987BA876F8178858985C0
:1017C0009A8520E030E040E85FE30E94A20488238D
:1017D0002CF481E090E09E838D833FC06F817885FB
:1017E00089859A8520E03FEF4FE757E40E94420445
:1017F00018164CF56B857C858D859E8520E030E044
:1018000040E251E40E949C02DC01CB01BC01CD010D
:101810000E94C600DC01CB019E838D830FC080E94E
:1018200091E09C838B838B819C810197F1F79C8352
:101830008B838D819E8101979E838D838D819E8177
:10184000009769F714C06F81788589859A850E9411
:10185000C600DC01CB019E838D838D819E819A839E
:10186000898389819A810197F1F79A838983A79661
:101870000FB6F894DEBF0FBECDBFCF91DF910895B4
:10188000DF93CF93CDB7DEB7A7970FB6F894DEBF3F
:101890000FBECDBF8FA3EBE3F0E08FA18083A8E361
:1018A000B0E0E8E3F0E0808182608C93A8E3B0E0F0
:1018B000E8E3F0E080818B7F8C93A8E3B0E0E8E37D
:1018C000F0E0808188608C9380E090E0A0E8BFE346
:1018D0008BA39CA3ADA3BEA36BA17CA18DA19EA154
:1018E0002BEA3AEA4AEA50E40E949C02DC01CB016E
:1018F0008F8F98A3A9A3BAA36F8D78A189A19AA16C
:1019000020E030E040E85FE30E94A20488231CF45A
:1019100081E08E8F91C06F8D78A189A19AA120E07E
:1019200030E04FE753E40E94420418160CF07BC0ED
:101930006BA17CA18DA19EA120E030E04AE754E498
:101940000E949603DC01CB018A8F9B8FAC8FBD8FE9
:101950006A8D7B8D8C8D9D8D20E030E04AE755E4CB
:101960000E949C02DC01CB018E8B9F8BA88FB98FCC
:101970006E897F89888D998D20E030E040E85FE3B3
:101980000E94A20488232CF481E090E09D8B8C8B34
:101990003FC06E897F89888D998D20E03FEF4FE7AA
:1019A00057E40E94420418164CF56A8D7B8D8C8D8D
:1019B0009D8D20E030E040E251E40E949C02DC0179
:1019C000CB01BC01CD010E94C600DC01CB019D8B87
:1019D0008C8B0FC080E991E09B8B8A8B8A899B89D5
:1019E0000197F1F79B8B8A8B8C899D8901979D8B41
:1019F0008C8B8C899D89009769F724C06E897F89BB
:101A0000888D998D0E94C600DC01CB019D8B8C8B4B
:101A10008C899D89998B888B888999890197F1F7A1
:101A2000998B888B0FC06F8D78A189A19AA10E9494
:101A3000C600DC01CB018E8F8E8D8F878F858A95B6
:101A4000F1F78F87A8E3B0E0E8E3F0E08081877FDB
:101A50008C9380E090E0A0E8BFE38B879C87AD8704
:101A6000BE876B857C858D859E8520E030E04AE7CA
:101A700055E40E949C02DC01CB018F839887A987E3
:101A8000BA876F81788589859A8520E030E040E8C3
:101A90005FE30E94A20488232CF481E090E09E83FF
:101AA0008D833FC06F81788589859A8520E03FEFDF
:101AB0004FE757E40E94420418164CF56B857C856D
:101AC0008D859E8520E030E040E251E40E949C023A
:101AD000DC01CB01BC01CD010E94C600DC01CB01C1
:101AE0009E838D830FC080E991E09C838B838B81E3
:101AF0009C810197F1F79C838B838D819E81019757
:101B00009E838D838D819E81009769F714C06F81BC
:101B1000788589859A850E94C600DC01CB019E8369
:101B20008D838D819E819A83898389819A81019792
:101B3000F1F79A838983A7960FB6F894DEBF0FBE9C
:101B4000CDBFCF91DF910895DF93CF93CDB7DEB7AF
:101B50002E970FB6F894DEBF0FBECDBFEAE3F0E0DC
:101B60008FEF8083A7E3B0E0E7E3F0E08081886057
:101B70008C93A7E3B0E0E7E3F0E0808182608C9390
:101B8000A7E3B0E0E7E3F0E0808184608C9380E03D
:101B900090E0A0EAB1E48B879C87AD87BE876B8518
:101BA0007C858D859E8520E030E04AE755E40E94E3
:101BB0009C02DC01CB018F839887A987BA876F814C
:101BC000788589859A8520E030E040E85FE30E94CF
:101BD000A20488232CF481E090E09E838D833FC093
:101BE0006F81788589859A8520E03FEF4FE757E43C
:101BF0000E94420418164CF56B857C858D859E8568
:101C000020E030E040E251E40E949C02DC01CB0184
:101C1000BC01CD010E94C600DC01CB019E838D83F7
:101C20000FC080E991E09C838B838B819C8101971D
:101C3000F1F79C838B838D819E8101979E838D8399
:101C40008D819E81009769F714C06F8178858985A1
:101C50009A850E94C600DC01CB019E838D838D8115
:101C60009E819A83898389819A810197F1F79A836A
:101C7000898388E30E94DC0A8CE00E94DC0A86E00B
:101C80000E94DC0A81E00E94DC0A80E80E94DC0AF3
:101C90002E960FB6F894DEBF0FBECDBFCF91DF9169
:101CA0000895DF93CF9300D000D0CDB7DEB79C83EB
:101CB0008B831A8219820FC029813A818B819C8182
:101CC000FC01E20FF31F80810E94400C89819A8100
:101CD00001969A83898329813A818B819C81FC01B9
:101CE000E20FF31F8081882339F70F900F900F9038
:101CF0000F90CF91DF9108950F931F93DF93CF93B0
:101D0000CDB7DEB7C755D0400FB6F894DEBF0FBED3
:101D1000CDBFFE01E95AFF4F8083ABE3B0E0EBE3B8
:101D2000F0E08081982F9F70FE01E95AFF4F80817B
:101D3000807F892B8C93A8E3B0E0E8E3F0E080811A
:101D400082608C93A8E3B0E0E8E3F0E080818B7FD1
:101D50008C93A8E3B0E0E8E3F0E0808188608C93A6
:101D6000FE01ED5AFF4F80E090E0A0E8BFE38083E2
:101D70009183A283B3838E01015B1F4FFE01ED5A55
:101D8000FF4F60817181828193812BEA3AEA4AEAAE
:101D900050E40E949C02DC01CB01F8018083918316
:101DA000A283B383FE01E15BFF4F60817181828179
:101DB000938120E030E040E85FE30E94A2048823A2
:101DC00034F4FE01E25BFF4F81E08083E0C0FE015E
:101DD000E15BFF4F608171818281938120E030E07F
:101DE0004FE753E40E94420418160CF0C0C0FE01F5
:101DF000ED5AFF4F608171818281938120E030E054
:101E00004AE754E40E949603DC01CB01FE01E65B45
:101E1000FF4F80839183A283B3838E010A5B1F4FA0
:101E2000FE01E65BFF4F608171818281938120E03A
:101E300030E04AE755E40E949C02DC01CB01F80146
:101E400080839183A283B383FE01EA5BFF4F6081AD
:101E500071818281938120E030E040E85FE30E945D
:101E6000A204882344F4FE01EC5BFF4F81E090E084
:101E70009183808364C0FE01EA5BFF4F60817181C2
:101E80008281938120E03FEF4FE757E40E944204B4
:101E900018160CF043C0FE01E65BFF4F60817181B4
:101EA0008281938120E030E040E251E40E949C0274
:101EB000DC01CB018E010C5B1F4FBC01CD010E94E8
:101EC000C600DC01CB01F801918380831FC0FE01B5
:101ED000EE5BFF4F80E991E091838083FE01EE5B32
:101EE000FF4F808191810197F1F7FE01EE5BFF4F7B
:101EF00091838083DE01AC5BBF4FFE01EC5BFF4F43
:101F000080819181019711969C938E93FE01EC5BE9
:101F1000FF4F808191810097D1F642C08E010C5B0A
:101F20001F4FFE01EA5BFF4F6081718182819381C7
:101F30000E94C600DC01CB01F80191838083DE01A1
:101F4000A05CBF4FFE01EC5BFF4F80819181119639
:101F50009C938E93FE01E05CFF4F808191810197FD
:101F6000F1F7FE01E05CFF4F9183808319C08E0181
:101F7000025B1F4FFE01E15BFF4F60817181828137
:101F800093810E94C600DC01CB01F8018083FE0131
:101F9000E25BFF4F80818FAF8FAD8A95F1F78FAFF6
:101FA000A8E3B0E0E8E3F0E08081877F8C9380E0F5
:101FB00090E0A8E4B3E48BAF9CAFADAFBEAF6BAD28
:101FC0007CAD8DAD9EAD2BEA3AEA4AEA50E40E9420
:101FD0009C02DC01CB018FAB98AFA9AFBAAF6FA960
:101FE00078AD89AD9AAD20E030E040E85FE30E9433
:101FF000A20488231CF481E08EAB91C06FA978AD58
:1020000089AD9AAD20E030E04FE753E40E944204EE
:1020100018160CF07BC06BAD7CAD8DAD9EAD20E095
:1020200030E04AE754E40E949603DC01CB018AAB1E
:102030009BABACABBDAB6AA97BA98CA99DA920E0E9
:1020400030E04AE755E40E949C02DC01CB018EA7F8
:102050009FA7A8ABB9AB6EA57FA588A999A920E0D9
:1020600030E040E85FE30E94A20488232CF481E082
:1020700090E09DA78CA73FC06EA57FA588A999A9D0
:1020800020E03FEF4FE757E40E94420418164CF55A
:102090006AA97BA98CA99DA920E030E040E251E427
:1020A0000E949C02DC01CB01BC01CD010E94C60054
:1020B000DC01CB019DA78CA70FC080E991E09BA715
:1020C0008AA78AA59BA50197F1F79BA78AA78CA54C
:1020D0009DA501979DA78CA78CA59DA5009769F745
:1020E00024C06EA57FA588A999A90E94C600DC011D
:1020F000CB019DA78CA78CA59DA599A788A788A58E
:1021000099A50197F1F799A788A70FC06FA978AD96
:1021100089AD9AAD0E94C600DC01CB018EAB8EA9C1
:102120008FA38FA18A95F1F78FA3ABE3B0E0EBE328
:10213000F0E08081282F2F70FE01E95AFF4F808147
:10214000882F90E082959295907F9827807F98279E
:10215000822B8C93A8E3B0E0E8E3F0E08081886014
:102160008C9380E090E0A0E8BFE38BA39CA3ADA399
:10217000BEA36BA17CA18DA19EA12BEA3AEA4AEAFB
:1021800050E40E949C02DC01CB018F8F98A3A9A38D
:10219000BAA36F8D78A189A19AA120E030E040E830
:1021A0005FE30E94A20488231CF481E08E8F91C01B
:1021B0006F8D78A189A19AA120E030E04FE753E428
:1021C0000E94420418160CF07BC06BA17CA18DA16B
:1021D0009EA120E030E04AE754E40E949603DC012F
:1021E000CB018A8F9B8FAC8FBD8F6A8D7B8D8C8D41
:1021F0009D8D20E030E04AE755E40E949C02DC011E
:10220000CB018E8B9F8BA88FB98F6E897F89888D2C
:10221000998D20E030E040E85FE30E94A20488232B
:102220002CF481E090E09D8B8C8B3FC06E897F8980
:10223000888D998D20E03FEF4FE757E40E944204DC
:1022400018164CF56A8D7B8D8C8D9D8D20E030E0CD
:1022500040E251E40E949C02DC01CB01BC01CD01B3
:102260000E94C600DC01CB019D8B8C8B0FC080E9E6
:1022700091E09B8B8A8B8A899B890197F1F79B8BD5
:102280008A8B8C899D8901979D8B8C8B8C899D89EC
:10229000009769F724C06E897F89888D998D0E9487
:1022A000C600DC01CB019D8B8C8B8C899D89998B21
:1022B000888B888999890197F1F7998B888B0FC052
:1022C0006F8D78A189A19AA10E94C600DC01CB0183
:1022D0008E8F8E8D8F878F858A95F1F78F87A8E3F4
:1022E000B0E0E8E3F0E08081877F8C9380E090E0CD
:1022F000A0E8BFE38B879C87AD87BE876B857C8515
:102300008D859E8520E030E04AE755E40E949C02DE
:10231000DC01CB018F839887A987BA876F81788585
:1023200089859A8520E030E040E85FE30E94A204BE
:1023300088232CF481E090E09E838D833FC06F81E1
:10234000788589859A8520E03FEF4FE757E40E9422
:10235000420418164CF56B857C858D859E8520E0A2
:1023600030E040E251E40E949C02DC01CB01BC0160
:10237000CD010E94C600DC01CB019E838D830FC07E
:1023800080E991E09C838B838B819C810197F1F79D
:102390009C838B838D819E8101979E838D838D810C
:1023A0009E81009769F714C06F81788589859A8529
:1023B0000E94C600DC01CB019E838D838D819E81AE
:1023C0009A83898389819A810197F1F79A83898316
:1023D000C95ADF4F0FB6F894DEBF0FBECDBFCF9105
:1023E000DF911F910F9108950F931F93DF93CF9368
:1023F000CDB7DEB7C755D0400FB6F894DEBF0FBEDD
:10240000CDBFFE01E95AFF4F8083ABE3B0E0EBE3C1
:10241000F0E08081982F9F70FE01E95AFF4F808184
:10242000807F892B8C93A8E3B0E0E8E3F0E0808123
:102430008D7F8C93A8E3B0E0E8E3F0E080818B7FB0
:102440008C93A8E3B0E0E8E3F0E0808188608C93AF
:10245000FE01ED5AFF4F80E090E0A0E8BFE38083EB
:102460009183A283B3838E01015B1F4FFE01ED5A5E
:10247000FF4F60817181828193812BEA3AEA4AEAB7
:1024800050E40E949C02DC01CB01F801808391831F
:10249000A283B383FE01E15BFF4F60817181828182
:1024A000938120E030E040E85FE30E94A2048823AB
:1024B00034F4FE01E25BFF4F81E08083E0C0FE0167
:1024C000E15BFF4F608171818281938120E030E088
:1024D0004FE753E40E94420418160CF0C0C0FE01FE
:1024E000ED5AFF4F608171818281938120E030E05D
:1024F0004AE754E40E949603DC01CB01FE01E65B4F
:10250000FF4F80839183A283B3838E010A5B1F4FA9
:10251000FE01E65BFF4F608171818281938120E043
:1025200030E04AE755E40E949C02DC01CB01F8014F
:1025300080839183A283B383FE01EA5BFF4F6081B6
:1025400071818281938120E030E040E85FE30E9466
:10255000A204882344F4FE01EC5BFF4F81E090E08D
:102560009183808364C0FE01EA5BFF4F60817181CB
:102570008281938120E03FEF4FE757E40E944204BD
:1025800018160CF043C0FE01E65BFF4F60817181BD
:102590008281938120E030E040E251E40E949C027D
:1025A000DC01CB018E010C5B1F4FBC01CD010E94F1
:1025B000C600DC01CB01F801918380831FC0FE01BE
:1025C000EE5BFF4F80E991E091838083FE01EE5B3B
:1025D000FF4F808191810197F1F7FE01EE5BFF4F84
:1025E00091838083DE01AC5BBF4FFE01EC5BFF4F4C
:1025F00080819181019711969C938E93FE01EC5BF3
:10260000FF4F808191810097D1F642C08E010C5B13
:102610001F4FFE01EA5BFF4F6081718182819381D0
:102620000E94C600DC01CB01F80191838083DE01AA
:10263000A05CBF4FFE01EC5BFF4F80819181119642
:102640009C938E93FE01E05CFF4F80819181019706
:10265000F1F7FE01E05CFF4F9183808319C08E018A
:10266000025B1F4FFE01E15BFF4F60817181828140
:1026700093810E94C600DC01CB01F8018083FE013A
:10268000E25BFF4F80818FAF8FAD8A95F1F78FAFFF
:10269000A8E3B0E0E8E3F0E08081877F8C9380E0FE
:1026A00090E0A8E4B3E48BAF9CAFADAFBEAF6BAD31
:1026B0007CAD8DAD9EAD2BEA3AEA4AEA50E40E9429
:1026C0009C02DC01CB018FAB98AFA9AFBAAF6FA969
:1026D00078AD89AD9AAD20E030E040E85FE30E943C
:1026E000A20488231CF481E08EAB91C06FA978AD61
:1026F00089AD9AAD20E030E04FE753E40E944204F8
:1027000018160CF07BC06BAD7CAD8DAD9EAD20E09E
:1027100030E04AE754E40E949603DC01CB018AAB27
:102720009BABACABBDAB6AA97BA98CA99DA920E0F2
:1027300030E04AE755E40E949C02DC01CB018EA701
:102740009FA7A8ABB9AB6EA57FA588A999A920E0E2
:1027500030E040E85FE30E94A20488232CF481E08B
:1027600090E09DA78CA73FC06EA57FA588A999A9D9
:1027700020E03FEF4FE757E40E94420418164CF563
:102780006AA97BA98CA99DA920E030E040E251E430
:102790000E949C02DC01CB01BC01CD010E94C6005D
:1027A000DC01CB019DA78CA70FC080E991E09BA71E
:1027B0008AA78AA59BA50197F1F79BA78AA78CA555
:1027C0009DA501979DA78CA78CA59DA5009769F74E
:1027D00024C06EA57FA588A999A90E94C600DC0126
:1027E000CB019DA78CA78CA59DA599A788A788A597
:1027F00099A50197F1F799A788A70FC06FA978ADA0
:1028000089AD9AAD0E94C600DC01CB018EAB8EA9CA
:102810008FA38FA18A95F1F78FA3ABE3B0E0EBE331
:10282000F0E08081282F2F70FE01E95AFF4F808150
:10283000882F90E082959295907F9827807F9827A7
:10284000822B8C93A8E3B0E0E8E3F0E0808188601D
:102850008C9380E090E0A0E8BFE38BA39CA3ADA3A2
:10286000BEA36BA17CA18DA19EA12BEA3AEA4AEA04
:1028700050E40E949C02DC01CB018F8F98A3A9A396
:10288000BAA36F8D78A189A19AA120E030E040E839
:102890005FE30E94A20488231CF481E08E8F91C024
:1028A0006F8D78A189A19AA120E030E04FE753E431
:1028B0000E94420418160CF07BC06BA17CA18DA174
:1028C0009EA120E030E04AE754E40E949603DC0138
:1028D000CB018A8F9B8FAC8FBD8F6A8D7B8D8C8D4A
:1028E0009D8D20E030E04AE755E40E949C02DC0127
:1028F000CB018E8B9F8BA88FB98F6E897F89888D36
:10290000998D20E030E040E85FE30E94A204882334
:102910002CF481E090E09D8B8C8B3FC06E897F8989
:10292000888D998D20E03FEF4FE757E40E944204E5
:1029300018164CF56A8D7B8D8C8D9D8D20E030E0D6
:1029400040E251E40E949C02DC01CB01BC01CD01BC
:102950000E94C600DC01CB019D8B8C8B0FC080E9EF
:1029600091E09B8B8A8B8A899B890197F1F79B8BDE
:102970008A8B8C899D8901979D8B8C8B8C899D89F5
:10298000009769F724C06E897F89888D998D0E9490
:10299000C600DC01CB019D8B8C8B8C899D89998B2A
:1029A000888B888999890197F1F7998B888B0FC05B
:1029B0006F8D78A189A19AA10E94C600DC01CB018C
:1029C0008E8F8E8D8F878F858A95F1F78F87A8E3FD
:1029D000B0E0E8E3F0E08081877F8C9380E090E0D6
:1029E000A0E8BFE38B879C87AD87BE876B857C851E
:1029F0008D859E8520E030E04AE755E40E949C02E8
:102A0000DC01CB018F839887A987BA876F8178858E
:102A100089859A8520E030E040E85FE30E94A204C7
:102A200088232CF481E090E09E838D833FC06F81EA
:102A3000788589859A8520E03FEF4FE757E40E942B
:102A4000420418164CF56B857C858D859E8520E0AB
:102A500030E040E251E40E949C02DC01CB01BC0169
:102A6000CD010E94C600DC01CB019E838D830FC087
:102A700080E991E09C838B838B819C810197F1F7A6
:102A80009C838B838D819E8101979E838D838D8115
:102A90009E81009769F714C06F81788589859A8532
:102AA0000E94C600DC01CB019E838D838D819E81B7
:102AB0009A83898389819A810197F1F79A8389831F
:102AC000C95ADF4F0FB6F894DEBF0FBECDBFCF910E
:102AD000DF911F910F910895DF93CF93CDB7DEB7AC
:102AE0002E970FB6F894DEBF0FBECDBFAAE3B0E0BD
:102AF000EAE3F0E08081806F8C93A7E3B0E0E7E346
:102B0000F0E0808188608C93A7E3B0E0E7E3F0E039
:102B1000808182608C93A7E3B0E0E7E3F0E08081FE
:102B200084608C9382E00E94F41188E20E94F41188
:102B30008CE00E94F41186E00E94F41181E00E9472
:102B4000F41180E090E0A0EAB1E48B879C87AD8728
:102B5000BE876B857C858D859E8520E030E04AE7C9
:102B600055E40E949C02DC01CB018F839887A987E2
:102B7000BA876F81788589859A8520E030E040E8C2
:102B80005FE30E94A20488232CF481E090E09E83FE
:102B90008D833FC06F81788589859A8520E03FEFDE
:102BA0004FE757E40E94420418164CF56B857C856C
:102BB0008D859E8520E030E040E251E40E949C0239
:102BC000DC01CB01BC01CD010E94C600DC01CB01C0
:102BD0009E838D830FC080E991E09C838B838B81E2
:102BE0009C810197F1F79C838B838D819E81019756
:102BF0009E838D838D819E81009769F714C06F81BC
:102C0000788589859A850E94C600DC01CB019E8368
:102C10008D838D819E819A83898389819A81019791
:102C2000F1F79A8389832E960FB6F894DEBF0FBE14
:102C3000CDBFCF91DF910895DF93CF9300D000D027
:102C4000CDB7DEB79C838B831A8219820FC029818E
:102C50003A818B819C81FC01E20FF31F80810E94ED
:102C60007C0E89819A8101969A83898329813A8190
:102C70008B819C81FC01E20FF31F8081882339F74F
:102C80000F900F900F900F90CF91DF910895DF93E9
:102C9000CF93CDB7DEB7A1E3B0E0E1E3F0E0808110
:102CA00080688C93A5E4B0E0E5E4F0E0808188647E
:102CB0008C93A5E4B0E0E5E4F0E0808180628C9341
:102CC000A5E4B0E0E5E4F0E0808185608C93CF91ED
:102CD000DF910895DF93CF93CDB7DEB72E970FB670
:102CE000F894DEBF0FBECDBFE3E4F0E080E3808365
:102CF00080E090E8ABEBB4E48B879C87AD87BE8720
:102D00006B857C858D859E8520E030E04AE755E423
:102D10000E949C02DC01CB018F839887A987BA8728
:102D20006F81788589859A8520E030E040E85FE30F
:102D30000E94A20488232CF481E090E09E838D837E
:102D40003FC06F81788589859A8520E03FEF4FE706
:102D500057E40E94420418164CF56B857C858D85DE
:102D60009E8520E030E040E251E40E949C02DC01BC
:102D7000CB01BC01CD010E94C600DC01CB019E83CA
:102D80008D830FC080E991E09C838B838B819C8134
:102D90000197F1F79C838B838D819E8101979E83A0
:102DA0008D838D819E81009769F714C06F8178852E
:102DB00089859A850E94C600DC01CB019E838D83A4
:102DC0008D819E819A83898389819A810197F1F708
:102DD0009A8389830E9432188E31910518F40E94DB
:102DE000FF1604C00E9494170E94B7072E960FB6D4
:102DF000F894DEBF0FBECDBFCF91DF910895DF9372
:102E0000CF93CDB7DEB72E970FB6F894DEBF0FBEC7
:102E1000CDBFE3E4F0E08EEF808380E090E8ABEBA1
:102E2000B4E48B879C87AD87BE876B857C858D8559
:102E30009E8520E030E04AE755E40E949C02DC01D8
:102E4000CB018F839887A987BA876F817885898519
:102E50009A8520E030E040E85FE30E94A2048823E6
:102E60002CF481E090E09E838D833FC06F81788554
:102E700089859A8520E03FEF4FE757E40E9442049E
:102E800018164CF56B857C858D859E8520E030E09D
:102E900040E251E40E949C02DC01CB01BC01CD0167
:102EA0000E94C600DC01CB019E838D830FC080E9A8
:102EB00091E09C838B838B819C810197F1F79C83AC
:102EC0008B838D819E8101979E838D838D819E81D1
:102ED000009769F714C06F81788589859A850E946B
:102EE000C600DC01CB019E838D838D819E819A83F8
:102EF000898389819A810197F1F79A8389830E9456
:102F000032188E31910518F40E94F90802C00E940F
:102F100058080E9494172E960FB6F894DEBF0FBE85
:102F2000CDBFCF91DF910895DF93CF93CDB7DEB7BB
:102F30002E970FB6F894DEBF0FBECDBFE3E4F0E0EE
:102F400084EB808380E090E8ABEBB4E48B879C87D4
:102F5000AD87BE876B857C858D859E8520E030E0C2
:102F60004AE755E40E949C02DC01CB018F839887DD
:102F7000A987BA876F81788589859A8520E030E0B6
:102F800040E85FE30E94A20488232CF481E090E0F3
:102F90009E838D833FC06F81788589859A8520E0E7
:102FA0003FEF4FE757E40E94420418164CF56B853B
:102FB0007C858D859E8520E030E040E251E40E94D2
:102FC0009C02DC01CB01BC01CD010E94C600DC01EA
:102FD000CB019E838D830FC080E991E09C838B831E
:102FE0008B819C810197F1F79C838B838D819E81DE
:102FF00001979E838D838D819E81009769F714C010
:103000006F81788589859A850E94C600DC01CB0195
:103010009E838D838D819E819A83898389819A8104
:103020000197F1F79A8389832E960FB6F894DEBF45
:103030000FBECDBFCF91DF910895DF93CF93CDB772
:10304000DEB7A1E3B0E0E1E3F0E080818F7B8C9319
:10305000AAE3B0E0EAE3F0E0808181608C93CF9155
:10306000DF910895DF93CF93CDB7DEB7E4970FB626
:10307000F894DEBF0FBECDBFAEE4B0E0EEE4F0E00A
:10308000808182608C93ECE4F0E011821082ABE3EB
:10309000B0E0EBE3F0E080818E7F8C9380E090E005
:1030A000A0E0B0E48DA79EA7AFA7B8AB6DA57EA5A5
:1030B0008FA598A92BEA3AEA4AEA50E40E949C02BA
:1030C000DC01CB0189A79AA7ABA7BCA769A57AA504
:1030D0008BA59CA520E030E040E85FE30E94A204BD
:1030E00088231CF481E088A791C069A57AA58BA5E7
:1030F0009CA520E030E04FE753E40E9442041816FC
:103100000CF07BC06DA57EA58FA598A920E030E0CE
:103110004AE754E40E949603DC01CB018CA39DA3F3
:10312000AEA3BFA36CA17DA18EA19FA120E030E042
:103130004AE755E40E949C02DC01CB0188A399A3D5
:10314000AAA3BBA368A179A18AA19BA120E030E03A
:1031500040E85FE30E94A20488232CF481E090E021
:103160009F8F8E8F3FC068A179A18AA19BA120E08B
:103170003FEF4FE757E40E94420418164CF56CA14C
:103180007DA18EA19FA120E030E040E251E40E94A9
:103190009C02DC01CB01BC01CD010E94C600DC0118
:1031A000CB019F8F8E8F0FC080E991E09D8F8C8F18
:1031B0008C8D9D8D0197F1F79D8F8C8F8E8D9F8DBE
:1031C00001979F8F8E8F8E8D9F8D009769F724C0FA
:1031D00068A179A18AA19BA10E94C600DC01CB0154
:1031E0009F8F8E8F8E8D9F8D9B8F8A8F8A8D9B8DCB
:1031F0000197F1F79B8F8A8F0FC069A57AA58BA5E0
:103200009CA50E94C600DC01CB0188A788A5898FF8
:10321000898D8A95F1F7898FABE3B0E0EBE3F0E0BD
:10322000808181608C9380E090E0A0E2B1E48D8B9E
:103230009E8BAF8BB88F6D897E898F89988D2BEA95
:103240003AEA4AEA50E40E949C02DC01CB01898BF5
:103250009A8BAB8BBC8B69897A898B899C8920E09E
:1032600030E040E85FE30E94A20488231CF481E080
:10327000888B91C069897A898B899C8920E030E0AC
:103280004FE753E40E94420418160CF07BC06D898E
:103290007E898F89988D20E030E04AE754E40E94CF
:1032A0009603DC01CB018C879D87AE87BF876C8539
:1032B0007D858E859F8520E030E04AE755E40E94B9
:1032C0009C02DC01CB0188879987AA87BB87688528
:1032D00079858A859B8520E030E040E85FE30E94A5
:1032E000A20488232CF481E090E09F838E833FC06A
:1032F000688579858A859B8520E03FEF4FE757E415
:103300000E94420418164CF56C857D858E859F853C
:1033100020E030E040E251E40E949C02DC01CB015D
:10332000BC01CD010E94C600DC01CB019F838E83CE
:103330000FC080E991E09D838C838C819D810197F2
:10334000F1F79D838C838E819F8101979F838E836C
:103350008E819F81009769F724C0688579858A8569
:103360009B850E94C600DC01CB019F838E838E81EA
:103370009F819B838A838A819B810197F1F79B833D
:103380008A830FC069897A898B899C890E94C600CB
:10339000DC01CB01888B8889898389818A95F1F743
:1033A0008983ABE3B0E0EBE3F0E080818E7F8C9328
:1033B000E0E3F0E08081882F90E0807490700097C7
:1033C000B9F3ECE4F0E011821082E0E3F0E08081F8
:1033D000882F90E0807490700097B9F7ECE4F0E0EB
:1033E000808191819CAB8BAB8BA99CA9CC01A0E087
:1033F000B0E0BC01CD010E942605DC01CB01BC017F
:10340000CD0128E23EE74CE05DE30E949C02DC0136
:10341000CB01BC01CD0120E030E040E050E40E944F
:103420009603DC01CB01BC01CD010E94C600DC018A
:10343000CB019AAB89AB89A99AA9E4960FB6F89407
:10344000DEBF0FBECDBFCF91DF9108950F931F93C5
:10345000DF93CF93CDB7DEB760970FB6F894DEBF9A
:103460000FBECDBF988B8F870E946C158F85988972
:10347000CC01A0E0B0E0BC01CD010E942605DC013A
:10348000CB01E8E7F1E0BC01CD0142E022E08F0191
:103490000E94321B88E791E00E945C1B88589E4F77
:1034A00020E630E0B90147E050E00E94531B87E678
:1034B00090E00E941C1688E791E00E941C1680E0B4
:1034C00090E0A6E9B3E48B879C87AD87BE876B85C8
:1034D0007C858D859E8520E030E04AE755E40E949A
:1034E0009C02DC01CB018F839887A987BA876F8103
:1034F000788589859A8520E030E040E85FE30E9486
:10350000A20488232CF481E090E09E838D833FC049
:103510006F81788589859A8520E03FEF4FE757E4F2
:103520000E94420418164CF56B857C858D859E851E
:1035300020E030E040E251E40E949C02DC01CB013B
:10354000BC01CD010E94C600DC01CB019E838D83AE
:103550000FC080E991E09C838B838B819C810197D4
:10356000F1F79C838B838D819E8101979E838D8350
:103570008D819E81009769F714C06F817885898558
:103580009A850E94C600DC01CB019E838D838D81CC
:103590009E819A83898389819A810197F1F79A8321
:1035A000898360960FB6F894DEBF0FBECDBFCF9172
:1035B000DF911F910F910895DF93CF93CDB7DEB7C1
:1035C0000E941D180E9447160E9494070E943218FC
:1035D0009093830180938201809182019091830175
:1035E0008E31910528F40E943B0A0E946A16EECFA4
:1035F0000E949A09EBCF2F923F924F925F926F9267
:103600007F928F929F92AF92BF92CF92DF92EF9272
:10361000FF920F931F93CF93DF93CDB7DEB7CA1BF3
:10362000DB0B0FB6F894DEBF0FBECDBF09942A881E
:10363000398848885F846E847D848C849B84AA84C6
:10364000B984C884DF80EE80FD800C811B81AA8153
:10365000B981CE0FD11D0FB6F894DEBF0FBECDBF1E
:10366000ED010895EF92FF920F931F93F22FF02E2A
:1036700047FD02C0E4E001C0E4E1242F332727FD29
:10368000309537FF03C0309521953F4F4F2D512F77
:103690000F2FEE2E0E94651B8F2D912F1F910F91E2
:1036A000FF90EF900895FB01DC0102C001900D92A4
:1036B00041505040D8F70895FC0101900020E9F7EF
:1036C000809590958E0F9F1F0895A9E0B0E0EBE6DE
:1036D000FBE10C94FF1A6A01122FA02EBE2C2BE3E3
:1036E000201718F42CE3922E02C0902E9394AE0172
:1036F0004F5F5F4F27E0092D0E94C71CBC018981E5
:10370000E82EFF24C70189709070019711F4ADE293
:1037100009C0B1FE02C0ABE205C0B0FC02C0A0E02F
:1037200001C0A0E2E3FE3BC0AA2311F423E001C0E4
:1037300024E0211710F020E002C0121B212FEB2CF7
:10374000B4FE02C0322F0AC0F601322F80E202C05E
:10375000819331503323E1F7C20ED11CAA2319F013
:10376000F601A1936F01F6013196E2FE05C09EE4D9
:10377000D6019C9381E404C09EE6D6019C9381E629
:1037800011968C9391833296DF01832F90E202C0D1
:103790009D9381508823E1F7E30FF11D40C0E2FEC5
:1037A00042C0AA2311F423E001C024E0211710F045
:1037B00020E002C0121B212FEB2CB4FE02C0922F7E
:1037C0000AC0F601922F80E202C0819391509923A2
:1037D000E1F7C20ED11CAA2319F0F601A1936F01E3
:1037E000F6013196E2FE08C089E4D6018C938EE49E
:1037F00011968C9386E407C089E6D6018C938EE6F9
:1038000011968C9386E681833296DF01892F20E220
:1038100002C02D9381508823E1F7E90FF11D10823A
:103820002EEF3FEFAFC0161617061CF041E050E038
:1038300003C0AB014F5F5F4FAA2019F480E090E016
:1038400003C08A2D90E0019620E030E0AA2311F019
:1038500021E030E0240F351F280F391F812F90E021
:103860002817390714F020E002C0121B212F4B2D1E
:1038700050E0CA0180719070B4FC0DC0B3FC0BC065
:10388000F601322F40E202C0419331503323E1F779
:10389000C20ED11C01C0322FAA2319F0F601A19348
:1038A0006F01892B11F0132F0AC0F601132F80E34B
:1038B00002C0819311501123E1F7C30ED11C092DD1
:1038C000060FBA8090E1892E912C8E209F20E4FE75
:1038D00004C0F1E3BF1609F40150101614F001E022
:1038E00003C0093008F008E09B0177FF02C020E028
:1038F00030E0CB010196821B930BFE013196E80F5D
:10390000F91F8EE2F82E3B01601A71088A2D90E0B3
:1039100044275527481B590B8FEF2F3F380719F4C1
:10392000D601FD926D01621773072CF062167306C3
:1039300014F4808101C080E3215030403196241777
:10394000350724F0D6018D936D01E6CF2617370792
:1039500049F4B5E3BB1528F0BB1621F4811491049A
:1039600009F481E3F6018193D601812F90E202C030
:103970009C93815011968823D9F7E10FF11D108295
:1039800020E030E0C9012996EEE00C941B1B2830A2
:1039900008F027E03327DA01990F311D87FD916088
:1039A00000966105710539F432602E5F3D9330E376
:1039B0002A95E1F708959F3F30F080387105610541
:1039C00009F03C5F3C5F3D93913008F08068911DA9
:1039D000DF93CF931F930F93FF92EF92192F987F4E
:1039E0009695E92F96959695E90FFF27E255FF4F9B
:1039F00099273327EE24FF24A701E70105900894B7
:103A0000079428F4360FE71EF81E491F511D660F54
:103A1000771F881F991F0694A1F70590079428F433
:103A2000E70EF81E491F561FC11D770F881F991FEB
:103A3000661F0694A1F70590079428F4F80E491F15
:103A4000561FC71FD11D880F991F661F771F069429
:103A5000A1F70590079420F4490F561FC71FD81FE0
:103A6000990F661F771F881F0694A9F784911095F8
:103A7000177041F0D695C79557954795F794E794F9
:103A80001A95C1F7E4E5F0E0689415901591359129
:103A90006591959105907FE27395E118F10A430BCA
:103AA000560BC90BD009C0F7E10CF11E431F561F7E
:103AB000C91FD01D7EF4703311F48A95E6CFE894C7
:103AC000015030F0080F0AF40027021708F4202FE5
:103AD0002395022F7A3328F079E37D932A95E9F72D
:103AE00010C07D932A9589F606949795679537952A
:103AF00017951794E118F10A430B560BC90BD0091F
:103B000098F023957E9173957A3308F070E37C9357
:103B10002013B8F77E9170617D9330F0839571E347
:103B20007D9370E32A95E1F71124EF90FF900F91B8
:103B30001F91CF91DF91992787FD90950895F89473
:023B4000FFCFB5
:103B420020636D2020200044697374203D20000012
:103B5200000000000000000001020203030303044E
:103B6200040404040404040505050505050505050A
:103B720005050505050505060606060606060606EA
:103B820006060606060606060606060606060606D3
:103B920006060606060606070707070707070707BA
:103BA20007070707070707070707070707070707A3
:103BB2000707070707070707070707070707070793
:103BC2000707070707070707070707070707070783
:103BD200070707070707070808080808080808086A
:103BE2000808080808080808080808080808080853
:103BF2000808080808080808080808080808080843
:103C02000808080808080808080808080808080832
:103C12000808080808080808080808080808080822
:103C22000808080808080808080808080808080812
:103C32000808080808080808080808080808080802
:103C420008080808080808080808080808080808F2
:083C5200080808080808080032
:00000001FF
